:020000040801F1
:10000000DFF874D072B63CF05FFF1C481C490160F9
:100010001C481D491D4A42F8040B116000201C4970
:10002000154A41F8040B9142FFF4FBAF19491A4AF3
:100030001A4B41F0FDF91A491A4A1B4B41F0F8F9E5
:100040001A4A1B4B41F0FDF91A491B4A1B4B41F060
:10005000EFF91B4A1B4B41F0F4F91B491B4A1C4B9F
:1000600041F0E6F91B4A1C4B41F0EBF93CF01CFF58
:100070003CF0ECFC7047000000800204000005A288
:10008000002200002300001000000000001088A0E3
:1000900000700204987A0D0800000000A816000005
:1000A00048910D08B016000048CE030048CE03006A
:1000B000983A0400E0481108A03A0410D8670410E8
:1000C000D86704109C621010187611080080000494
:1000D000B8BD0004B8BD000430C800042DE9F843E1
:1000E00007460C46274D1AB12A6842F0010200E08B
:1000F0002A682A60226912F0080F234A116804D086
:100100009D0702D541F4807101E021F480711160F6
:1001100094E802110022424502EB010602EB0C05B5
:1001200022D21A4852F80190C0F80090D6F80490F4
:10013000C0F80490D6F80890C0F80890F668C66039
:10014000134E0120306030680004FCD5114800686F
:10015000286011480068686010480068A86010486E
:100160000068E8601032D6E72269120707D59B07BE
:1001700005D40C4839462022234600F07EF90020A1
:10018000BDE8F88304000BA20C000BA210000BA228
:1001900008000BA250000BA254000BA258000BA2A7
:1001A0005C000BA220000BA208B518B120206AF059
:1001B00023FD02E020206AF0CFFC002008BD2DE9DD
:1001C000F04154690F4615469846002C70D01669C8
:1001D00016F0010613D01E6816F001060CD1236834
:1001E000002B65D0A268182A08D0202A02D0102A35
:1001F00062D104E0164602E0002600E010266368A3
:1002000013B9237B012B5BD02B6898075CD1AB68BB
:10021000990759D1696800295AD011F00F015BD1B3
:100220002022384668F010FE2B695A0702D420209D
:100230006AF0E2FC237B13B146F00206B6B2284B0B
:100240001E602B69DB071ED5264B00221A605A6000
:100250009A60DA601A615A619A61DA61D8F80030FE
:1002600013F0010303D0204B10221A600BE0A268A8
:10027000266822F00300834205D01A4AF158F9504B
:10028000D1500433F7E7286910F0020026D0174B4D
:1002900002221A606368164A196811605968516031
:1002A00099689160DA68134B00201A60BDE8F0810C
:1002B00046F20100BDE8F08146F20300BDE8F0819E
:1002C00046F20200BDE8F08146F20700BDE8F08189
:1002D00046F20A00BDE8F08146F20800BDE8F08170
:1002E00004000BA220000BA20C000BA208000BA222
:1002F00040000BA24C000BA208B51369D80602D52A
:100300000B4B022119601369990609D5094900238D
:100310000B604B608B60CB600B614B618B61CB6181
:1003200013695B0602D420206AF016FC002008BD89
:1003300008000BA220000BA208461B6811460122F0
:10034000FFF7CCBE08461B6811460022FFF7C6BE69
:10035000F8B58368184C1F685B68066845682760B5
:10036000A36009B9012300E000232373134B316814
:10037000196071685960296899606968D960392184
:100380001961217B5C61012904D13B2119610A4B70
:10039000C168596022B10A4B1A6842F001021A6022
:1003A0000849064A064B0848FFF709FF003018BF06
:1003B00001204042F8BD00BF50601010386010109E
:1003C00090601010706010106060101010B50C4C30
:1003D00000212046182268F037FD0021102209482C
:1003E00068F032FD084B0949094800221A6022468C
:1003F000FFF782FF003018BF0120404210BD00BF50
:100400003860101050601010906010107060101064
:100410006060101008B50549054A064B0648FFF70D
:100420008BFF003018BF0120404208BD70601010E3
:1004300038601010906010106060101008B5054909
:10044000054A064B0648FFF77DFF003018BF012024
:10045000404208BD7060101038601010906010109D
:10046000606010101F2803D821B120230B6001E029
:100470000020704746F22A007047F0B5DC689D689E
:100480009208A408002393420CD0B3FBF4F604FBBB
:10049000163651F8237055F826607E4040F82360E8
:1004A0000133F0E7F0BD000081F0004102E000BF41
:1004B00083F0004330B54FEA41044FEA430594EA24
:1004C000050F08BF90EA020F1FBF54EA000C55EA5F
:1004D000020C7FEA645C7FEA655C00F0E2804FEA30
:1004E0005454D4EB5555B8BF6D420CDD2C4480EA12
:1004F000020281EA030382EA000083EA010180EA42
:10050000020281EA0303362D88BF30BD11F0004F8F
:100510004FEA01314FF4801C4CEA113102D04042C5
:1005200061EB410113F0004F4FEA03334CEA133300
:1005300002D0524263EB430394EA050F00F0A78018
:10054000A4F10104D5F1200E0DDB02FA0EFC22FA13
:1005500005F2801841F1000103FA0EF2801843FA07
:1005600005F359410EE0A5F120050EF1200E012AF8
:1005700003FA0EFC28BF4CF0020C43FA05F3C01836
:1005800051EBE37101F0004507D54FF0000EDCF1AF
:10059000000C7EEB00006EEB0101B1F5801F1BD358
:1005A000B1F5001F0CD349085FEA30004FEA3C0C5C
:1005B00004F101044FEA445212F5800F80F09A8052
:1005C000BCF1004F08BF5FEA500C50F1000041EB56
:1005D000045141EA050130BD5FEA4C0C404141EB5A
:1005E000010111F4801FA4F10104E9D191F0000F81
:1005F00004BF01460020B1FA81F308BF2033A3F104
:100600000B03B3F120020CDA0C3208DD02F1140CFA
:10061000C2F10C0201FA0CF021FA02F10CE002F135
:100620001402D8BFC2F1200C01FA02F120FA0CFC2E
:10063000DCBF41EA0C019040E41AA2BF01EB045177
:10064000294330BD6FEA04041F3C1CDA0C340EDC75
:1006500004F11404C4F1200220FA04F001FA02F3B8
:1006600040EA030021FA04F345EA030130BDC4F176
:100670000C04C4F1200220FA02F001FA04F340EA6B
:100680000300294630BD21FA04F0294630BD94F01C
:10069000000F83F4801306BF81F480110134013D03
:1006A0004EE77FEA645C18BF7FEA655C29D094EA74
:1006B000050F08BF90EA020F05D054EA000C04BFF2
:1006C0001946104630BD91EA030F1EBF00210020DD
:1006D00030BD5FEA545C05D14000494128BF41F07C
:1006E000004130BD14F580043CBF01F5801130BDE0
:1006F00001F0004545F0FE4141F470014FF000006B
:1007000030BD7FEA645C1ABF194610467FEA655C1B
:100710001CBF0B46024650EA013406BF52EA0335BD
:1007200091EA030F41F4002130BD00BF90F0000FAB
:1007300004BF0021704730B54FF4806404F13204E7
:100740004FF000054FF0000150E700BF90F0000FA0
:1007500004BF0021704730B54FF4806404F13204C7
:1007600010F0004548BF40424FF000013EE700BF97
:1007700042004FEAE2014FEA31014FEA02701FBF27
:1007800012F07F4393F07F4F81F06051704792F0F9
:10079000000F14BF93F07F4F704730B54FF4607473
:1007A00001F0004521F0004120E700BF50EA0102BE
:1007B00008BF704730B54FF000050AE050EA01026B
:1007C00008BF704730B511F0004502D5404261EBDB
:1007D00041014FF4806404F132045FEA915C3FF41C
:1007E000DCAE4FF003025FEADC0C18BF03325FEAB5
:1007F000DC0C18BF033202EBDC02C2F1200300FA6A
:1008000003FC20FA02F001FA03FE40EA0E0021FA8E
:1008100002F11444C1E600BF70B54FF0FF0C4CF478
:10082000E06C1CEA11541DBF1CEA135594EA0C0F2E
:1008300095EA0C0F00F0DEF82C4481EA030621EA69
:100840004C5123EA4C5350EA013518BF52EA0335A4
:1008500041F4801143F4801338D0A0FB02CE4FF056
:100860000005E1FB02E506F00042E0FB03E54FF086
:100870000006E1FB03569CF0000F18BF4EF0010E7E
:10088000A4F1FF04B6F5007F64F5407404D25FEA7A
:100890004E0E6D4146EB060642EAC62141EA55512D
:1008A0004FEAC52040EA5E504FEACE2EB4F1FD0C6F
:1008B00088BFBCF5E06F1ED8BEF1004F08BF5FEAED
:1008C000500E50F1000041EB045170BD06F000469F
:1008D00046EA010140EA020081EA0301B4EB5C044C
:1008E000C2BFD4EB0C0541EA045170BD41F4801144
:1008F0004FF0000E013C00F3AB8014F1360FDEBF69
:10090000002001F0004170BDC4F10004203C35DA44
:100910000C341BDC04F11404C4F1200500FA05F3C7
:1009200020FA04F001FA05F240EA020001F0004268
:1009300021F0004110EBD37021FA04F642EB0601DE
:100940005EEA430E08BF20EAD37070BDC4F10C0408
:10095000C4F1200500FA04F320FA05F001FA04F2CC
:1009600040EA020001F0004110EBD37041F10001B8
:100970005EEA430E08BF20EAD37070BDC4F12005C3
:1009800000FA05F24EEA020E20FA04F301FA05F22B
:1009900043EA020321FA04F001F0004121FA04F2D3
:1009A00020EA020000EBD3705EEA430E08BF20EAA3
:1009B000D37070BD94F0000F0FD101F000464000DD
:1009C00041EB010111F4801F08BF013CF7D041EA5F
:1009D000060195F0000F18BF704703F00046520063
:1009E00043EB030313F4801F08BF013DF7D043EA34
:1009F0000603704794EA0C0F0CEA135518BF95EAEA
:100A00000C0F0CD050EA410618BF52EA4306D1D170
:100A100081EA030101F000414FF0000070BD50EA8F
:100A2000410606BF1046194652EA430619D094EA19
:100A30000C0F02D150EA013613D195EA0C0F05D103
:100A400052EA03361CBF104619460AD181EA030157
:100A500001F0004141F0FE4141F470014FF000000F
:100A600070BD41F0FE4141F4780170BD70B54FF0AA
:100A7000FF0C4CF4E06C1CEA11541DBF1CEA13552A
:100A800094EA0C0F95EA0C0F00F0A7F8A4EB05040C
:100A900081EA030E52EA03354FEA013100F0888003
:100AA0004FEA03334FF0805545EA131343EA1263CC
:100AB0004FEA022245EA111545EA10654FEA002681
:100AC0000EF000419D4208BF964244F1FD0404F53A
:100AD000407402D25B084FEA3202B61A65EB030596
:100AE0005B084FEA32024FF480104FF4002CB6EB53
:100AF000020E75EB030E22BFB61A754640EA0C00D3
:100B00005B084FEA3202B6EB020E75EB030E22BF12
:100B1000B61A754640EA5C005B084FEA3202B6EB53
:100B2000020E75EB030E22BFB61A754640EA9C0012
:100B30005B084FEA3202B6EB020E75EB030E22BFE2
:100B4000B61A754640EADC0055EA060E18D04FEAA0
:100B5000051545EA16754FEA06164FEAC30343EA40
:100B600052734FEAC2025FEA1C1CC0D111F4801F0D
:100B70000BD141EA00014FF000004FF0004CB6E706
:100B800011F4801F04BF01430020B4F1FD0C88BFA5
:100B9000BCF5E06F3FF6AFAEB5EB030C04BFB6EBB0
:100BA000020C5FEA500C50F1000041EB045170BDA3
:100BB0000EF0004E4EEA113114EB5C04C2BFD4EBD0
:100BC0000C0541EA045170BD41F480114FF0000E54
:100BD000013C90E645EA060E8DE60CEA135594EAD0
:100BE0000C0F08BF95EA0C0F3FF43BAF94EA0C0FD3
:100BF0000AD150EA01347FF434AF95EA0C0F7FF448
:100C000025AF104619462CE795EA0C0F06D152EA9B
:100C100003353FF4FDAE1046194622E750EA41067F
:100C200018BF52EA43067FF4C5AE50EA41047FF490
:100C30000DAF52EA43057FF4EBAE12E74FF0FF3CF5
:100C400006E000BF4FF0010C02E000BF4FF0010CC6
:100C50004DF804CD4FEA410C7FEA6C5C4FEA430C3F
:100C600018BF7FEA6C5C1BD001B050EA410C0CBF8E
:100C700052EA430C91EA030F02BF90EA020F0020F0
:100C8000704710F1000F91EA030F58BF994208BF57
:100C900090422CBFD8176FEAE37040F00100704714
:100CA0004FEA410C7FEA6C5C02D150EA013C07D16B
:100CB0004FEA430C7FEA6C5CD6D152EA033CD3D0B6
:100CC0005DF8040B704700BF8446104662468C46B0
:100CD0001946634600E000BF01B5FFF7B7FF0028E3
:100CE00048BF10F1000F01BD4DF808EDFFF7F4FF0C
:100CF0000CBF012000205DF808FB00BF4DF808ED97
:100D0000FFF7EAFF34BF012000205DF808FB00BFB9
:100D10004DF808EDFFF7E0FF94BF012000205DF8DB
:100D200008FB00BF4DF808EDFFF7CEFF94BF012090
:100D300000205DF808FB00BF4DF808EDFFF7C4FF89
:100D400034BF012000205DF808FB00BF4FEA4102DC
:100D500012F5001215D211D56FF47873B3EB62520D
:100D600012D94FEAC12343F0004343EA505311F034
:100D7000004F23FA02F018BF404270474FF00000C6
:100D8000704750EA013005D111F0004008BF6FF004
:100D9000004070474FF00000704700BF4A0011D27A
:100DA00012F5001211D20DD56FF47873B3EB6252C5
:100DB0000ED44FEAC12343F0004343EA505323FAD1
:100DC00002F070474FF00000704750EA013002D146
:100DD0004FF0FF3070474FF0000070474FEA41027C
:100DE000B2F1E04324BFB3F5001CDCF1FE5C0DD989
:100DF00001F0004C4FEAC0024CEA5070B2F1004FD3
:100E000040EB830008BF20F00100704711F0804FD5
:100E100021D113F13872BCBF01F00040704741F49A
:100E200080114FEA5252C2F11802C2F1200C10FA9E
:100E30000CF320FA02F018BF40F001004FEAC12382
:100E40004FEAD32303FA0CFC40EA0C0023FA02F326
:100E50004FEA4303CCE77FEA625307D150EA0133FC
:100E60001EBF4FF0FE4040F44000704701F00040CC
:100E700040F0FE4040F40000704700BF4BB942B95B
:100E8000002908BF002802D04FF0FF31084600F0CB
:100E90003BB882B0EC462DE9005000F01DF8DDF8BB
:100EA00004E002B00CBC70472DE97043069E144666
:100EB0001D468046894600F029F804FB01F300FB3B
:100EC0000533A4FB00451D44B8EB040469EB05059C
:100ED000C6E90045BDE870832DE97043069E1446BF
:100EE000804689461D4600F05DF900FB05F504FBD0
:100EF0000153A0FB04451D44B8EB040469EB050550
:100F0000C6E90045BDE87083704700BF00292DE9A0
:100F1000F00FC0F29F800024002BC0F2968015468F
:100F200006460F46002B3ED18A4257D9B2FA82F3C9
:100F30004BB1C3F1200201FA03F720FA02F29D40FF
:100F4000174300FA03F6290CB7FBF1F2330C01FB4F
:100F5000127CA8B243EA0C4700FB02F3BB4209D95A
:100F60007F1902F1FF3C80F00181BB4240F2FE801C
:100F7000023A2F44FF1AB7FBF1F3B6B201FB13712B
:100F800046EA014100FB03F0884208D9491903F100
:100F9000FF3780F0ED80884240F2EA80023B43EA6E
:100FA0000242002303E08B420AD900231A4610466E
:100FB000194614B1404261EB4101BDE8F00F7047A2
:100FC000B3FA83F8B8F1000F40F084808B4202D36B
:100FD000824200F2DE8000230122E8E712B90123F9
:100FE000B3FBF2F5B5FA85F2002A39D17F1B280C44
:100FF0001FFA85FC0123B7FBF0F1320C00FB1177DF
:1010000042EA07470CFB01F2BA4207D97F1901F106
:10101000FF3802D2BA4200F2C1804146BF1AB7FB84
:10102000F0F2B6B200FB127046EA00400CFB02FC84
:10103000844507D9401902F1FF3702D2844500F2F6
:10104000AB803A4642EA0142B1E7E443524263EBE5
:10105000430364E7404261EB41014FF0FF345BE73B
:101060009540C2F1200327FA03F1280C26FA03F376
:101070009740B1FBF0F81F433B0C00FB18111FFA1F
:1010800085FC43EA01410CFB08F38B4206FA02F6A9
:1010900008D9491908F1FF3279D28B4277D9A8F1E2
:1010A00002082944C91AB1FBF0F3BFB200FB1311C7
:1010B00047EA01470CFB03F2BA4207D97F1903F153
:1010C000FF3160D2BA425ED9023B2F44BF1A43EAD5
:1010D000084390E7C8F1200203FA08FC25FA02F35E
:1010E00043EA0C0C4FEA1C4921FA02F301FA08F713
:1010F00020FA02F2B3FBF9F1174309FB11333A0C62
:101100001FFA8CFB42EA03430BFB01FA9A4505FAEE
:1011100008F008D913EB0C0301F1FF3235D29A45E0
:1011200033D902396344CAEB0303B3FBF9F209FB79
:101130001233BFB247EA03470BFB02F9B94508D99E
:1011400017EB0C0702F1FF331BD2B94519D9023A4C
:10115000674442EA0145A5FB0001C9EB07078F423E
:101160004FF000030AD305D02A4620E7624601E784
:101170003B4614E706FA08F68642F5D26A1E0023BB
:1011800015E71A46E5E70B46A0E71146CBE7904680
:1011900088E7434642460AE7023A53E702392F44BA
:1011A0003CE700BF2DE9F00F144605460E46002B24
:1011B00043D18A4253D9B2FA82F757B1C7F1200618
:1011C00020FA06F601FA07F302FA07F41E4300FAC2
:1011D00007F5210CB6FBF1F22B0C01FB1267A0B254
:1011E00043EA074600FB02F3B34209D9361902F17C
:1011F000FF3780F0F680B34240F2F380023A264493
:10120000F61AB6FBF1F3ADB201FB136145EA0141F9
:1012100000FB03F0884208D9091903F1FF3680F07A
:10122000E280884240F2DF80023B43EA0242002330
:1012300010461946BDE8F00F70478B424AD8B3FA02
:1012400083F6002E4DD18B4202D3824200F2D6802B
:101250000023012210461946BDE8F00F704712B96D
:101260000124B4FBF2F4B4FA84F2002A7CD1091B05
:10127000260CA7B20123B1FBF6F02A0C06FB1011D5
:1012800042EA014107FB00F28A4207D9091900F13D
:10129000FF3C02D28A4200F2C3806046891AB1FB49
:1012A000F6F2ADB206FB121145EA014507FB02F763
:1012B000AF4208D92C1902F1FF3180F09680A74285
:1012C00040F29380023A42EA004210461946BDE8D5
:1012D000F00F704700231A4610461946BDE8F00F7C
:1012E0007047C6F1200522FA05F4B3401C434FEACB
:1012F000144821FA05F301FA06F720FA05F5B3FBC5
:10130000F8FC2F4308FB1C333D0C1FFA84FA45EA16
:1013100003430AFB0CF9994502FA06FB04D91B1991
:101320000CF1FF326DD39446C9EB0303B3FBF8F520
:1013300008FB1533BFB247EA03470AFB05F8B84577
:1013400004D93F1905F1FF3361D31D4645EA0C4C22
:10135000ACFB0B23C8EB07079F424FF0000549D3B6
:1013600045D062462B4663E79440C2F1200321FA40
:1013700003FC260C20FA03F301FA02F5BCFBF6F895
:1013800043EA05010B0C06FB18CCA7B243EA0C4C50
:1013900007FB08F3634500FA02F509D91CEB040CBE
:1013A00008F1FF323AD2634538D9A8F10208A444C3
:1013B000C3EB0C0CBCFBF6F389B206FB13CC41EA81
:1013C0000C4107FB03F28A4207D9091903F1FF30E8
:1013D00022D28A4220D9023B2144891A43EA084397
:1013E00049E73A460CE733461FE70A466BE7B04049
:1013F0009042B6D20CF1FF32002319E73346324651
:1014000016E799458FD9ACF1020C23448CE7B84517
:101410009BD9023D274499E70346DEE79046C7E79C
:10142000023821443AE700BF10F8012B11F8013BC4
:10143000012A28BF9A42F7D0D01A704773B96AB907
:10144000002908BF0028BCBF00204FF00041C4BFE6
:101450006FF000414FF0FF30FFF756BD82B0EC4611
:101460002DE90050FFF720FDDDF804E002B00CBCD0
:10147000704700BF30B5134D0FCD89B001AC0FC41C
:1014800095E80700104B1B6884E80700002201ACB8
:1014900002F1C00054F8221000010132062A19504E
:1014A000F6D1D3F8682C42F00F02C3F8682C079AE3
:1014B000D3F8641C02F00F020A43C3F8642C09B08D
:1014C00030BD00BFE8AC0708A03A0410044B054942
:1014D0001A6811601B684FF420421A61704700BF00
:1014E000A03A041000240021044B1B680522C3F815
:1014F00000250022C3F81025704700BFA03A041051
:10150000044B1B680522C3F800210022C3F81021F8
:10151000704700BFA03A0410054B1B684FF00452FF
:10152000C3F800234FF40042C3F81023704700BFF4
:10153000A03A0410044B054A1B68C3F8002A44F67D
:101540000F02C3F8102A7047A03A04100040801020
:10155000044B054A1B68C3F8002B45F60F02C3F87D
:10156000102B7047A03A0410F0D1BD50034B1B68FC
:101570000022C3F8202BC3F8302B7047A03A041088
:1015800008B5FFF777FFFFF7A1FFFFF7ADFFFFF704
:10159000B7FFFFF7C1FFFFF7CDFFFFF7D9FFBDE8AA
:1015A0000840FFF7E3BF000030B585B0102301937A
:1015B0004FF47A7300240125029368464FF4FA63CE
:1015C0008DF802408DF801408DF80050039318F01B
:1015D00005FD30B10448054A502122F04FFC204659
:1015E00000E0284605B030BD70B30708C6B3070851
:1015F00008B50A4B4FF47A72DA6118204FF4FA6298
:101600009A6118F09DFD30B10548064A682122F024
:1016100035FC002008BD012008BD00BF58610D1039
:101620008AB30708F2B3070808B5FFF7BDFF18B182
:10163000BDE80840FFF7DCBF08BD08B518F01CFD89
:1016400030B918F0A7FDD0F1010038BF002008BD67
:10165000002008BD014B185C704700BFA6B3070807
:1016600038B50C4C25788DB900F074FF40B10123DA
:1016700009480A4A2370332122F018FC284606E064
:10168000207038210448064A22F010FCFE2040B2A7
:1016900038BD00BF4C92041019B4070826B40708DF
:1016A00048B4070808B5084B1B790BB9FE2008E0C1
:1016B00001F030F80028F9D000F08AFF00F0D8FDE2
:1016C000002040B208BD00BF6892041008B548B1C0
:1016D000074B1B7843B1074B9862D96200F06CFF4F
:1016E000002002E0FF2000E0FE2040B208BD00BF65
:1016F0004C9204106892041010B5044660B100F0DA
:1017000053FB6379AA2B09D150B90748074A7521C1
:1017100022F0CCFB012004E0FF2002E0FE2000E0EC
:10172000002040B210BD00BFDFB407086CB407084A
:1017300008B500F041FA002008BD08B500F04EFFE2
:10174000002008BD014B187000207047D8670410B6
:1017500007B503468DE806000548064A892122F0B0
:10176000A5FB0548054A064B8A2167F0D7FA00BF5A
:1017700018B5070817B6070861B6070836BA07088C
:10178000EE4C0808064B42F6302242F632219A5AB5
:101790005B5A9A4298BF02F59672D31A038070473B
:1017A0000068041007B5012001A969F075FA0198D5
:1017B00003B05DF804FB000070B50F4B1446002227
:1017C000054643F824200E46FFF7ECFF0B4B43F889
:1017D00024000B4B1B6C002DB8BF6D429D4208D8F6
:1017E00086EAE670A0EBE670984294BF06200220DD
:1017F00070BD022070BD00BF14930410E067041098
:10180000689204102DE9F041DFF894801E4F002308
:10181000144628F8123027F812301C4A22F81430E7
:101820001B4A22F814301B4A054642F824300E4663
:10183000FFF7B8FF184B43F82400184B5B6C33B923
:101840002846314622B2BDE8F041FFF7B5BF85EA30
:10185000E572A2EBE5729A4212D886EAE672A2EB32
:10186000E6729A420CD838F814301D4437F8143018
:1018700028F814501E4427F814600520BDE8F081B4
:101880000220BDE8F08100BF0893041040920410CC
:101890002C93041014930410E06704106892041051
:1018A000F467041013B5044601A9012069F0F4F9A6
:1018B000019B4FF47A701B1BB3FBF0F002B010BD1C
:1018C000F8B5204B204E214D214F144653F82220CD
:1018D000013243F8242036F81430184435F8143017
:1018E00080B219440FFA80FC3B6C26F81400BCF15E
:1018F000000FB8BFCCF1000C89B29C4525F814103C
:101900003246284605D809B20029B8BF4942994253
:1019100006D9002320F8143022F814300220F8BD34
:101920000C4B53F82400FFF7BDFFFB6C984206D325
:10193000002326F8143025F814300420F8BD0620C2
:10194000F8BD00BF14930410409204102C930410AF
:1019500068920410E06704102DE9F041254F7B6C7C
:1019600080468C46144623B912B2BDE8F041FFF719
:1019700023BF214A214E52F8245036F81400013575
:1019800042F824501E4D404435F8141080B2614492
:101990000FFA80FCBCF1000FB8BFCCF1000C89B28B
:1019A0009C4526F8140025F8141030462A4605D820
:1019B00009B20029B8BF4942994207D9002320F84B
:1019C000143022F814300220BDE8F0810D4B53F89A
:1019D0002400FFF767FFBB6C984207D3002326F86B
:1019E000143025F814300320BDE8F0810520BDE84F
:1019F000F08100BF6892041014930410F46704107F
:101A000008930410E067041003F0B2B808B5044B63
:101A1000987A1CF08BFA034B01229A7008BD00BF24
:101A20004C9204106892041010B5054CA07A1CF07A
:101A300003F9A07A1CF0E0FA024B00229A7010BD64
:101A40004C920410689204107FB5124D8DF80C0072
:101A500000242868019404F049F902A9064601AA65
:101A60002868234603F0B4FF012806D00A480B4A31
:101A70004FF4B271334622F019FA019B3BB1084B87
:101A80004FF080521A60BFF34F8FBFF36F8F04B0D7
:101A900070BD00BF2893041003BA0708A4B6070856
:101AA00004ED00E037B50E4B93F85940054694B964
:101AB00002F02EFF142302460093012123462846FC
:101AC00004F022FA0120FFF7BFFF032003B0BDE8B6
:101AD0003040FFF7B9BF03B0BDE83040FFF7A4BF07
:101AE0006892041013B50C4A137914460BB9127896
:101AF0007AB1227800920948094A40F2751122F021
:101B0000D5F900230220237102B0BDE81040FFF791
:101B10009BBF02B010BD00BF689204101CBA07083A
:101B2000D1B607082DE9F84F214B90F804B0D3E95E
:101B3000004500278246B9469846D94535D20AEB7A
:101B400007063089FEF702FE02460B46204629466C
:101B5000FEF762FED8E90223FEF7ACFCFFF71EF9A0
:101B600030817089FEF7F2FDD8E90423FEF754FEB8
:101B7000D8E90623FEF79EFCFFF710F90D4B7081A4
:101B800031899A68914202DBDA68914200DD328144
:101B900072891B699A4203DB064B5B699A4200DD3E
:101BA000738109F101090637C7E70120BDE8F88F05
:101BB000E89204106892041007B501A81CF0C6FA58
:101BC0000F4A104942F630200023135242F63220C9
:101BD0000B70135242F634200B65135242F6362036
:101BE000135201230198CB701CF0B7FA0648074A3C
:101BF0004FF4D67122F05AF903B05DF804FB00BF30
:101C0000006804106892041065BA070819B707083D
:101C10002DE9F04186B00023ADF81230374B1E7825
:101C20000446984636B13648364A40F2D51122F07D
:101C30003DF95EE00DF11200FFF7A4FDBDF8127052
:101C4000254623799E4205F106050FD22B78009395
:101C50006B880193AB8802930397334628482A4A3E
:101C600040F2E51122F022F90136EAE7012F08D807
:101C700001232348254A88F800304FF4F77122F0F9
:101C800015F905A81CF062FA214B42F6322242F601
:101C900036219A5A5A5224215143581825790571F0
:101CA00065794571206858500020242656439D19B7
:101CB000471C2D79164980B285420ED90625684306
:101CC00025183044014495F806E081F806E028899B
:101CD0000881688948813846E7E7013292B2B2F557
:101CE000967F42F6322328BF00220598CA521CF084
:101CF00034FAFFF7F7FE06B0BDE8F08168920410F1
:101D00005AB5070828B707084FB7070886B7070866
:101D100000680410F7B504460E8801A80D46174662
:101D20001CF014FA1D4924237343CA188E461079F7
:101D3000207152796271CB582360002324207043B4
:101D40000EEB000203F1010C12799BB29A420DD9FD
:101D50000622534311491844014423448A799A7155
:101D60000A891A814A895A816346E7E73FB12B887D
:101D700001339BB2B3F5967F28BF00232B800198D7
:101D80001CF0EBF92379052B05D90548054A40F2EB
:101D9000192122F08BF803B0F0BD00BF00680410D9
:101DA000C4B50708B3B7070870B5044686B060B974
:101DB0002848294A40F2532122F078F82748284A37
:101DC000284B4FF4157166F0A9FF274B1D788DB194
:101DD00000222649FFF79EFF2279002399B2914203
:101DE00006D2062101FB0341072088710133F5E784
:101DF00001252BE01E4A42F6302142F63226515A86
:101E0000925B914220D019490122FFF783FF0DF127
:101E10001600FFF7B7FC23796E1CADB2AB42E7D9D1
:101E2000062202FB05420B481189937900915289E1
:101E30000192BDF816200292039540F26F210D4ADF
:101E400022F034F83546E6E701221A71284606B03A
:101E500070BD00BFE2B9070821B8070861B60708DE
:101E60007FB50708EE4C0808689204103092041001
:101E7000006804105DB8070838B50446FFF792FC07
:101E8000064B1B682046DB6898470546FFF78AFC2F
:101E90002060FFF787FC284638BD00BFDC670410D0
:101EA00030B5072A85B0044610D9009101920293FB
:101EB0000A480B4A40F29D21234621F0F7FF0948CA
:101EC000094A0A4B40F29E2166F028FF084C54F85C
:101ED00022401A46A04705B030BD00BF31B5070803
:101EE00093B8070861B60708EEB50708EE4C080876
:101EF000F8B407082DE9F84391F804800379074600
:101F00008946984538BF984606460C460025454503
:101F100023D23B799D4207D3A379EBB12389338147
:101F200063897381002012E099F804309D420DD23C
:101F3000A2795AB1238930897189C01A6389C91A73
:101F400009B22BB200B2FFF7ABFF00E0012006F8A8
:101F5000060F01350634DAE7A84687F80480BDE8A5
:101F6000F883000010B5154B5A788AB01ABBDC789C
:101F700004BB01A812492246FFF7CCFE9DF80A30A7
:101F8000CBB19DF8081022468A420CD201A8062344
:101F900003FB0203987910B98DF8082003E00020B4
:101FA00098710132F0E7FFF7FDFB019001A8FFF700
:101FB0002FFE00E0DA700AB010BD00BF6892041076
:101FC000369204100279002393420CD2062101FBC1
:101FD00003018979042904D8064B00221A650120DF
:101FE00070470133F0E7034B1A6D01321A65002088
:101FF000704700BF6892041007B5084B012283F8B0
:10200000592014230093064B00221868032113461D
:1020100003F07AFF03B05DF804FB00BF6892041080
:10202000389304101FB5194A034692F8580058B364
:1020300009B9146B02E0012904D1546B002C08BFCC
:10204000142400E01424124A73B100230093106892
:102050000921224603AB03F057FF012814D00D4895
:102060000D4A40F273310CE01421009110680421F4
:10207000224603F049FF012806D00648074A40F2ED
:102080007931234621F012FF04B010BD689204108C
:10209000389304104FBA0708D0B80708F8B80708F3
:1020A0007FB5134D95F8593000240394DBB12146D8
:1020B0000120FFF7B7FF0F4B1E6802F02FFC0094C2
:1020C00002460621304603AB03F01EFF48B90A481A
:1020D00066F0C2FE09480A4A0A4B40F2324166F0F5
:1020E0001DFE85F859400120FFF7AEFC04B070BD1D
:1020F000689204103893041021B9070861B60708E4
:102100009BBA0708EE4C0808014B186803F0EEBDB7
:102110002893041000B58BB001A81149242266F061
:102120006FFE9DF8083033B90E480F4A40F2AF31C8
:1021300021F0BCFE10E00D490022CA700A659A42E7
:1021400007D201A8062101FB020101208871024487
:10215000F5E701A8FFF75CFD0BB05DF804FB00BFDD
:10216000C4920410A0B5070842B907086892041089
:102170002DE9F84380468068D8F80C30C01A8946AB
:10218000FEF7E4FAD8F81C300446D8F81800C01A54
:102190000D46FEF7DBFA02460B4620462946FEF7BF
:1021A00065FC06460F46C9E90067D8F80800FEF747
:1021B000CDFA0446D8F818000D46FEF7C7FA0246D5
:1021C0000B4630463946FEF727FB02460B462046B3
:1021D0002946FEF76DF9C9E90201D8F81430D8F89C
:1021E0001000C01AFEF7B2FAD8F824300446D8F826
:1021F0002000C01A0D46FEF7A9FA02460B462046FB
:102200002946FEF733FC04460D46C9E90445D8F8D3
:102210001000FEF79BFA0646D8F820000F46FEF79E
:1022200095FA02460B4620462946FEF7F5FA024685
:102230000B4630463946FEF73BF9C9E90601BDE8D1
:10224000F883000010B5084C08492046FFF790FFBE
:10225000A36C13B94FF44873A364E36C1BB9024B2E
:102260004FF4FA72DA6410BD68920410E892041018
:1022700008B500215C220D4866F0E6FD002124220D
:102280000B4866F0E1FD00211C220A4866F0DCFDE7
:10229000002142F63822084866F0D6FD07480021A2
:1022A0002022BDE8084066F0CFBD00BF6892041050
:1022B000C49204104C92041000680410E8920410B8
:1022C00010B5032002F054FCFFF7D2FF01F0ECFE42
:1022D000FFF7B8FFFFF79AFB01F0ACFA094C20605A
:1022E0000368984760B9FFF7C3FF01F081FFFFF76C
:1022F000A9FFFFF78BFB00F0EDFE20600368984715
:1023000010BD00BFDC67041070B59CB03E4800F003
:10231000B7F918B90A2002F02BFCF7E73B4B3C4C0D
:102320001B68DB699847002839D001A8FFF7A4FD96
:102330003849002205460AA8FFF7ECFC364A9DF80A
:102340002C1013799942164605D99DF808209A4217
:1023500001D9002B40D124222F4801A966F050FD5D
:102360009DF82C3032799A4222D00BB39DF8083078
:10237000F3B16379012B1BD12748FFF7D3FB24224C
:10238000254913A866F03CFD13A80AA9FFF7B2FD82
:1023900013A8FFF73DFC1E4B00221A6504E0637989
:1023A00013B9012384F8593000F0B4F91CB070BDA2
:1023B000012D13D11848FFF7B5FB6379002BF3D13A
:1023C000134B164801225A714FF49161144A21F0BF
:1023D0006DFDFFF79FFEE7E7012DEED06379012B3E
:1023E0000AD10B4B0D480F4A5D7140F2954121F027
:1023F0005DFDFFF7B7FDD4E708480B4A40F29B416B
:1024000021F054FDCDE700BF4D920410DC670410AD
:102410006892041036920410C4920410D0B90708D0
:102420006BB907088CB90708A4B9070830B595B08F
:102430002B4B694618684FF0FF32002303F066FB10
:102440000028F5D09DF80430022B06D0032B09D0CC
:10245000012B31D1FFF758FF2EE0224B9A6AD86A40
:10246000904729E01F4C94F859502DBB1E49242257
:1024700002A866F0C5FC2A460BA81C49FFF74AFCD7
:102480000BA902A8FFF736FD02A8FFF79BFD054642
:10249000FFF788F9236D0290012B02D802A8FFF7FD
:1024A000B7FB15B10120002104E09DF80C301BB1F1
:1024B00001200146FFF7B6FD0D4B186802F080FEC3
:1024C0000C4A80001168C0F580538B42B0D913606C
:1024D00009480A4A40F2E54121F0E8FCA8E700BFBC
:1024E0002893041068920410C492041036920410C9
:1024F0003C920410389204108DBA0708B7B9070847
:102500001FB508210022142003F0FCF80C4B0D49E4
:1025100018600723002400930B4B01930294234679
:1025200003944FF48062094801F09EFF2146032284
:10253000012003F0E7F8064B186004B010BD00BF9F
:1025400028930410192D09083C9204102D24010829
:102550004493041073B5FFF7B3FE0646F0B1114B78
:10256000114D002401221A7183F859201C705C70EF
:102570000E4B0093224614212346204603F09CFC78
:102580000B4B05F110011860A87A1BF05BFC0949A0
:10259000A87A22461BF05AFBFFF7B2FF304602B082
:1025A00070BD00BF689204104C920410A51A010877
:1025B00038930410A120010808B5044B987A1BF049
:1025C0001BFD0C20BDE808401BF04CBD4C920410D4
:1025D000014B987A1BF0AABC4C92041008B5024B30
:1025E0001B685B69984708BDDC67041007B50C4B96
:1025F00009B9012200E000221A700A4B01A91868EB
:1026000003F042FA019B3BB1074B4FF080521A6036
:10261000BFF34F8FBFF36F8F03B05DF804FB00BFB4
:10262000409304104493041004ED00E008B50D4BF2
:102630000D4A5B7E022B03D1030A1370507008BD54
:10264000012B01D1107008BD0848094A4FF4CB7125
:1026500021F02CFC0748084A084B40F2971166F01D
:102660005DFB00BF4C92041048CE030021BD07085B
:102670001EBB07085ABB0708EBBA0708EE4C080850
:1026800073B51D4D286003782E46002B2FD184781A
:1026900094B902A9437801F8043DC0781AF048FDC6
:1026A00010B92B68012024E02B681448144ADB7809
:1026B0005C2121F0FBFB1AE0012C0CD12146407972
:1026C00018F0E0FF2B682146187918F0DBFF2B6823
:1026D00020461C700EE009480A4A6521234621F075
:1026E000E5FB0948094A0A4B662166F017FB336887
:1026F0000020187002B070BD3C930410C9BA0708DE
:10270000A1BB0708BDBB07085ABB07080EBB0708DB
:10271000EE4C080870B5184D2B681A782E4632B367
:102720009C7864B9D8781AF06DFD00B32B68134813
:10273000134ADB787D2121F0B9FB204670BD012CC6
:1027400009D15879002118F0B9FF2B6800211879B8
:1027500018F0B4FF0BE009480A4A8421234621F00F
:10276000A5FB0948094A0A4B852166F0D7FA336868
:1027700000221A70012070BD3C930410D9BA0708DA
:10278000EABB0708BDBB07085ABB07080FBD07080F
:10279000EE4C080838B5084B1B681C79054601212A
:1027A000204618F06FFF20460DB1012100E02946B8
:1027B000BDE8384018F0DCBF3C930410024B1B68A6
:1027C0000021187918F05EBF3C93041007B5064B42
:1027D0001B680DF10701187918F0B0FF9DF807008C
:1027E00003B05DF804FB00BF3C93041038B5084B00
:1027F0001B685C7905460121204618F043FF2046FE
:102800000DB1012100E02946BDE8384018F0B0BF05
:102810003C93041008B50120FFF7BCFF0120FFF72F
:10282000E5FF0020FFF7B6FF0020BDE80840FFF7F6
:10283000DDBF08B50020FFF7D9FF0020FFF7AAFF92
:102840000120FFF7D3FF0120BDE80840FFF7A2BF3A
:1028500010B5FFF7B3FF0120FFF7C8FFFFF7B6FF82
:1028600004460020FFF7C2FF204610BD08B500B1A6
:102870000120FFF78FFF0120FFF7B8FF0020BDE820
:102880000840FFF7B3BF70B506460825802414EA58
:10289000060018BF0120FFF77DFF0120FFF7A6FF0C
:1028A000013D0020FFF7A2FF15F0FF054FEA540499
:1028B000EDD10120FFF76EFFBDE87040FFF7C8BF04
:1028C000F8B506460F46FFF779FF082500240120DA
:1028D000FFF78CFFFFF77AFF6400E4B208B144F021
:1028E00001040020013DFFF781FF15F0FF05EED147
:1028F0003846FFF7BBFF3470F8BD2DE9F8430546B5
:102900000E4614461F46FFF785FF05F0FE00FFF751
:10291000BAFF8046300AFFF7B6FF8146F0B2FFF7F4
:10292000B2FF44B13FB149EA080840EA080505F0A2
:10293000FF05274404E0FFF77CFF0020BDE8F88393
:10294000BC4206D014F8010BFFF79DFF2843C5B227
:10295000F6E7FFF76EFFD5F1010038BF0020BDE8B4
:10296000F8832DE9F84306460F4614461D46FFF747
:1029700051FF06F0FE00FFF786FF8046380AFFF79A
:1029800082FF8146F8B2FFF77EFF0746FFF742FF5E
:1029900046F00100FFF777FF064604B125B9FFF7BF
:1029A00048FF0020BDE8F8836B1E5942204659417C
:1029B000FFF786FF013D04F10104F5D1FFF739FF70
:1029C00049EA08003843304300F0FF00D0F101002D
:1029D00038BF0020BDE8F8832DE9F04F344F3D6843
:1029E000AC7887B0884691461E46BA46002C56D130
:1029F0002B780BB9012058E04708A3462D4A537E97
:102A0000022B0BEB080205D1110A8DF80C108DF882
:102A10000D2011E0012B02D18DF80C200CE026488E
:102A2000264A4FF4D77121F041FA2548254A264B12
:102A300040F2AF1166F072F9C3F10804CBEB060265
:102A4000A2428CBFE4B2D4B203A809EB0B01184434
:102A5000224666F0D5F9A3440A251649DAF8002083
:102A60004B7ED078234403AA39461AF027FCC21CB7
:102A7000034607D102200193FEF7C6FF013D019BEB
:102A800001D0EAE738B10C48104A40F2C7115BB2F6
:102A900021F00CFA08E0B345ACD0AFD9AAE7012C7D
:102AA00002D1FFF72AFF00E0002007B0BDE8F08F59
:102AB0003C9304104C920410B4BA070808BC0708F1
:102AC0005ABB0708E6BC0708EE4C080845BC0708D7
:102AD0002DE9F04FDFF870A1DAF800C09CF8025041
:102AE0008BB00F4691461C46002D40F097809CF815
:102AF00000B0BBF1000F02D14FF0010B93E0082BA7
:102B0000DFF85C814FEA50062CD80846FFF78EFDAF
:102B1000474A079408F11001537E0691CDF81080C2
:102B200005938DF80C600A25DAF8003003A9D878EF
:102B30001AF028FCC31C064605D10220FEF764FFEC
:102B4000013D01D0F0E738B13A483B4A40F2032159
:102B500073B221F0ABF953E048463849224666F09B
:102B60004FF960E0F6B201960846FFF75FFD334982
:102B7000019B0591661B2E498DF80C300F2E4FF0EE
:102B800001034A7E0693089394BFF6B20F26DAF843
:102B900000300792CDF810800996D8782849002295
:102BA0001AF06AFB834630B12248264A40F21F21C0
:102BB00021F07CF924E0244B1B6803A9D8781AF093
:102BC00051FC014630B11B48204A4FF4097121F0F5
:102BD0006DF928E01E4B322218680B4602F096FF72
:102BE000834650B913481B4A40F22A2121F05EF96E
:102BF000194B18783FF092FD15E0184B1B7813B96C
:102C00004FF0000B0FE0354448460C49324666F061
:102C1000F7F87819A54280B2A7D36DE7012DEFD15F
:102C2000FFF79FFE834658460BB0BDE8F08F00BF0C
:102C30004C920410FBBC070845BC070858CE0300A3
:102C4000ED25010868BC07083C9304108BBC0708FD
:102C500044930410C2BC07082C6D0D10409304105F
:102C600048CE03000120704707B502AA002302F8EE
:102C7000013DBA2048F24E110123FFF729FF10B1A0
:102C80009DF80700C00903B05DF804FB07B50123F8
:102C900048F24E110DF10702BA20FFF719FF9DF817
:102CA000070010F00F0018BF012003B05DF804FB0F
:102CB000F0B5002485B0064601A920468DF80240F3
:102CC0008DF8034067F0E8FF019B3360AA2373711E
:102CD000BA20012348F24E110DF10202FFF7F8FE6F
:102CE0009DF8023003F00F05052D2CD835714DB934
:102CF000BA2048F250110DF102020123FFF7E8FE5D
:102D00002C4620E0DB091DD048F24F17394602AAB5
:102D10000823BA20FFF7DCFE9DF809309DF80A1061
:102D20009DF80C2003EB01219DF80B3003EB0222F0
:102D3000062303FB046301340837AC4219815A812E
:102D4000BFB2E3D3012448F24E110DF10302012377
:102D5000BA20FFF741FE204605B0F0BD73B5052649
:102D600000258DF80360ADF80450014698B91F4C5A
:102D7000607A18F0BDFC607A012118F083FC012113
:102D8000607A18F0F5FC0F20FEF73EFE607A012114
:102D900018F0AEFC27E0022825D1144C2946607AB1
:102DA00018F0A6FC0121607A18F06CFC2946607AC4
:102DB00018F0DEFC3046FEF727FE48F240010DF128
:102DC00003020123BA20FFF707FE48F2400101AADF
:102DD0000123BA20FFF77CFE0548064A9DF804301F
:102DE000C32121F063F8002002B070BD4C920410A2
:102DF0006CC007089EBD070808B1002000E0022053
:102E0000FFF7ACBF30B50546274C85B048F24011FE
:102E10002A460623BA20FFF75BFE2B7823706B78D7
:102E20006370AB782372EB7863722B7923746B79C0
:102E3000637448F247010DF10F020123BA20FFF736
:102E400047FE2278637800921848194AF12121F050
:102E50002DF8227A637A00921448164AF22121F062
:102E600025F8227C637C00921048134AF32121F05C
:102E70001DF82B78392B08D16B78312B05D1AB7825
:102E8000332B02D1EB78372B06D008480B4AF921B7
:102E900021F00CF8002005E00448094AFC2121F04B
:102EA00005F8012005B030BD7E3B041044BD070885
:102EB000BFBD0708F3BD070827BE07085BBE0708AC
:102EC00082BE070838B567F08FFE0546BA2048F283
:102ED0004701094A0346FFF77FFD0446284667F08D
:102EE00073FE3CB90548064A4FF4887120F0DEFFB6
:102EF000204638BD012038BDC43A041065BD07081E
:102F0000A5BE070813B50B461446062823D8DFE8EC
:102F100000F0040E1619202020006846FFF772FF0B
:102F2000D0B120466946062265F06AFF11E048F2FA
:102F3000470122466A23BA20FFF7CAFD0CE0FFF7DB
:102F4000C1FF06E01A46BA2048F247016A23FFF79C
:102F500043FD012000E0002002B010BD4E4B4F4A5F
:102F600073B51A60BA221A71FEF71CFC4C4C4D4A1C
:102F700040F2751106464C4820F098FF607A18F030
:102F80007DFB207E18F07AFBE17A607A18F0B0FBC6
:102F9000607A012118F076FB607A002118F0E8FBD6
:102FA000207E002118F0A4FB207E012118F06AFB8E
:102FB0000021207E18F0DCFB0520FEF725FD012115
:102FC000207E18F0D5FB3C20FEF71EFD217B607AA9
:102FD00018F08EFB0021607A18F054FB0A20FEF7EF
:102FE00013FD3148314A40F28F1120F05FFF002479
:102FF0002F48FFF745FB054688B901342A482D4A7A
:103000004FF4CA71234620F051FF0A20FEF7FCFC62
:103010001E2CEDD12448284A40F2971136E068462C
:10302000FFF7F0FE38B92048244A4FF4CF7120F062
:103030003DFF012400E00024FFF744FF38B91A489F
:103040001F4A4FF4D27120F031FF013405E01648D9
:103050001C4A40F2A71120F029FFFFF75BFB304626
:10306000FEF720FC4FF4D8710346174A0E4820F0B3
:103070001DFF0D483CB140F2B311144A234620F025
:1030800015FF002504E0124A4FF4DB7120F00EFF1B
:10309000284602B070BD00BF48930410C43A041023
:1030A0004C920410BBBE070888BD0708DDBE0708A8
:1030B0004D920410FDBE070832BF07085DBF070828
:1030C0007DBF0708AFBF0708DCBF07080DC00708B2
:1030D00043C0070800487047A43A04100020704716
:1030E00008B50448044A4FF4A37120F0DFFE012024
:1030F00008BD00BF35C60708F0C0070813B5FF2399
:103100008DF807304FF4FA748C2080210DF10702FE
:103110000123FFF7DDFC10B901238DF807309DF87E
:103120000700C30703D5013CEED1204603E0D0F1F0
:10313000010038BF002002B010BD000010B51648D5
:10314000164A86B040F2331120F0B0FE0F248C20D6
:1031500080210DF107020123013CFFF7B9FC14F0B7
:10316000FF0415D09DF80730DB07F0D48C20E02158
:1031700002AA0E23FFF7ACFC9DF8070010F08800B0
:1031800007D09DF8080010F0070018BF012000E0EC
:10319000204606B010BD00BFA4C607080FC107082F
:1031A0007FB5524E52490446032203A8754665F086
:1031B00027FE3378A34200F09780234600954D48C0
:1031C0004D4A6D2120F072FE4C4B83F85A4024B1D9
:1031D0004B4B1B681B7843BB13E0FEF70DFFFEF75C
:1031E00015FCFEF791FF0028F2D0FEF78DFF772146
:1031F0000346444A3F4820F059FE0A2001F0B8FC3B
:10320000EFE74148FFF73CFA40B93A483F4A80218E
:1032100020F04CFE0A2001F0ABFCF2E735483C4AB6
:10322000852120F043FE012500E00025002C37D049
:10323000384C207E18F0D6FA3220FEF7E5FB207ECF
:1032400018F0D0FA0A20FEF7DFFB6524052001F014
:103250008FFC8C2080210DF10B020123FFF738FC3D
:1032600038B924482C4A962120F020FE013CEDD1AB
:1032700004E02048294A982120F018FE01233370E9
:103280005DB1FFF747FA18B91A48254AA22102E0B2
:103290001848244AA52120F009FEFEF7C5FB23E0CB
:1032A0008C20202103AA0323FFF796FB18B91148AD
:1032B0001D4AAF2102E00F481C4AB12120F0F6FD63
:1032C0000C481B4AB32120F0F1FD002333705DB19F
:1032D000FFF720FA18B90748114AB82102E005485B
:1032E000104ABB2120F0E2FD04B070BD61930410D0
:1032F00004AD070891C6070827C1070868920410A3
:103300003C93041052C107084D92041069C107088C
:103310008CC107084C920410B5C10708D6C1070834
:10332000FAC1070813C207082FC2070840C20708DE
:1033300054C2070830B5002387B0044630B9354879
:10334000354A364B40F2F31165F0E8FC344A995C9B
:1033500002AA995401330E2BF8D18C2080210DF153
:1033600003020123FFF7B4FB38B19DF8033013F0DB
:10337000F80F0CBF0025012500E00125002001A960
:1033800067F08AFC019B2360AA23637100232371E9
:1033900023816381E38123829DF809309DF8082011
:1033A00003F00103238412F0010310D09DF80B30C9
:1033B0009DF80A1003F00F0001EB002121819DF818
:1033C0000C1003F0F00301EB031363810123920758
:1033D00011D59DF80F209DF80E1002F00F0001EBA3
:1033E00000219DF81000E18102F0F00200EB0212D2
:1033F00022823BB102232371237903B135B9002521
:10340000257103E0218162810123F4E7284607B09A
:1034100030BD00BF71C207084EC60708CAC2070800
:103420005293041038B509480D4614464FF4A7715D
:10343000074A20F03BFD15EA040006D00548064A7D
:10344000064B40F2511165F069FC38BD64C60708AF
:10345000CFC2070871C207088DC00708EE4C0808E4
:1034600037B5254D8C2080212A460123FFF730FBFC
:10347000044600283DD02B781A0605D51F4A0023A4
:1034800013701F4A137014E013F0F80F06D11B4A93
:103490001178012902D8013111700AE003F0080304
:1034A00003F0FF042BB3164B1A78012A20D80132FF
:1034B0001A70FFF723FE8C20E021124A0E23FFF73B
:1034C00007FB044630B91048104A4FF4DE7120F073
:1034D000EDFC0EE08C2080210DF107020123FFF7A7
:1034E000F7FA044628B19DF90730002BE1DB00E034
:1034F0000024204603B030BD6093041051930410A3
:103500005093041052930410C6C00708EDC2070878
:1035100010B500F051FD0446054814B1E521054AF7
:1035200001E0054AE82120F0C1FC204610BD00BFA3
:103530007CC6070811C3070837C307082DE9F04FF9
:1035400095B00446FFF7DAFD1020002110AA00F024
:10355000A7FB054608B900255CE09DF840309DF8C2
:10356000411023706170002210AE1644A018013281
:10357000B6780672062AF7D19DF848709DF8496022
:103580009DF84A009DF84B202774492B6674A0745F
:10359000E274E0D15429DED19DF842B0BBF1370F7F
:1035A000D9D19DF843A0BAF1320FD4D19DF84490FF
:1035B000B9F1360FCFD19DF84580B8F1300FCAD19F
:1035C0009DF846C0BCF1460FC5D19DF84740572C29
:1035D000C1D10A929DF84C200B929DF84D200C927F
:1035E0009DF84E200D929DF84F2009908DE802081D
:1035F0000E92CDF808A0CDF80C90CDF81080CDF843
:1036000014C00694079708960448054A4FF494712D
:1036100020F04CFC284615B0BDE8F08FA5C0070887
:10362000A3C307082DE9F0438DB0FEF7BBF8734C38
:10363000734A06464FF41A71724820F037FC724AFA
:1036400070484FF41B7120F031FC607A18F016F8C6
:10365000207E18F013F8E17A607A18F049F8207E9D
:10366000002118F045F80021207E18F00BF8207E8C
:1036700018F0D4F80320FEF7C7F90DF11701207EEA
:1036800018F05CF8207E18F0E5F8207E012117F094
:10369000F9FF207E9DF8171018F06AF8607A012172
:1036A00017F0F0FF0121607A18F062F80A20FEF7A7
:1036B000ABF9207E18F096F83220FEF7A5F9207EAF
:1036C00018F090F8217B607A18F012F8607A0021E7
:1036D00017F0D8FF40F28A214C4A9DF8173049482C
:1036E00020F0E4FB3046FEF7DDF88146FEF75AF89D
:1036F0000024074625460A20FEF786F94448FEF7CF
:10370000BFFF30B93F48434A4FF4257120F0CEFB4C
:1037100038E08C2080210DF116020123FFF7D8F943
:10372000054620B93846FEF7BDF8804601E04FF067
:103730000A089DF81630DB0724D41DB33846FEF77F
:10374000B1F801249DF81630334A029040F2B321BB
:103750002C488DE8100120F0A9FB3046FEF7A2F8B6
:1037600007462046FFF71CFD06A8FFF7E7FE0546C3
:1037700008BB40F2BB21294A224820F097FBFEF704
:10378000C9FF37E00134FEF7C5FF022CB3D935B9C4
:103790001C48234A40F2A72120F088FB2AE01E2C77
:1037A000A9D118481F4A9DF8163040F2AD2120F0EB
:1037B0007DFB00251EE040F2BF211B4A114820F08E
:1037C00075FBFFF7A5FE06A8FFF7B8FE40F2C7217C
:1037D000164A0C4820F06AFBFEF79CFF3046FEF7C5
:1037E00061F88DE88002034640F2CD210548104A79
:1037F00020F05CFB28460DB0BDE8F0834C9204102D
:10380000F3C30708DEC007081DC4070844C407083F
:103810004D92041072C40708A4C4070849C50708DC
:10382000F8C4070821C5070866C507087FC507084B
:103830009EC5070800487047983B041010B5044621
:103840000B468C202146BDE81040FFF7C5B810B5E7
:1038500004460B468C202146BDE81040FFF738B9DE
:1038600007B5A02002210DF10602FFF7F0FF28B1F5
:10387000BDF80600D0F1010038BF002003B05DF8AC
:1038800004FB07B5802001210DF10702FFF7DFFFE0
:1038900010B901238DF807309DF80730DB07F1D40C
:1038A00003B05DF804FB00B5C1B0FFF7EAFF602389
:1038B0008DF8003000238DF8013049238DF8023057
:1038C00054238DF8033037238DF804302020322321
:1038D00006216A468DF80530FFF7B0FF18B1FFF7F3
:1038E000D0FFFFF7BDFF41B05DF804FB00B5C1B0EC
:1038F000FFF7C7FF60238DF8003080238DF801307B
:1039000049238DF8023054238DF8033037238DF886
:1039100004302020322306216A468DF80530FFF757
:103920008DFF18B1FFF7ADFFFFF79AFF41B05DF8CB
:1039300004FB00B5C3B0ADF80600FFF7A2FF61239A
:103940008DF808300DF10601002302220DF10A0066
:103950008DF8093065F054FA2020042102AAFFF7FF
:103960006DFF18B1FFF78DFFFFF77AFF43B05DF8E9
:1039700004FB00B5C1B0FFF784FF6F2320200121B5
:103980006A468DF80030FFF759FF18B1FFF779FF4D
:10399000FFF766FF41B05DF804FB30B58028C1B089
:1039A0000D4601D000202DE00029FBD00024FFF7B8
:1039B00068FFF023291904220DF102008DF8003070
:1039C0008DF8014065F01CFA202006216A46FFF7B9
:1039D00035FF0028E6D0FFF754FFFFF741FF00282E
:1039E000E0D00434802CE2D1F123202001216A466A
:1039F0008DF80030FFF722FF0028D3D0FFF741FFFA
:103A0000FFF72EFF41B030BDF8B505460F4604461E
:103A10005CB1802C34BF26468026291B30463944B1
:103A2000FFF7BBFF10B1A41BF2E70120F8BD0000B7
:103A300070B586B006460C46FFF723FF01238DF8CC
:103A4000103020200623022104AA8DF81130FFF740
:103A5000F5FE08B9002536E0FFF713FFA020082186
:103A600004AAFFF7F4FE05460028F3D09DF81220C3
:103A700000929DF8132001929DF814209DF81130BA
:103A800002921248124ABA2120F010FAA6F1080355
:103A9000E2180E485178009191780191D278E35C58
:103AA0000292BD210B4A20F001FA0023A21904A9B9
:103AB0001A44194412F8082C4978914203D1013371
:103AC000042BF3D1C6E7284606B070BD7040080845
:103AD00090400808BF40080830B50546C3B008B993
:103AE000002424E0FFF7CDFE03240123202002213F
:103AF00002AA8DF808308DF80940FFF79FFE0028D4
:103B0000EED0FFF7BEFE2146A02001AAFFF79FFEE0
:103B1000044660B19DF806209DF80530054843EA4B
:103B200002232B8040F25921034A20F0BFF920469E
:103B300043B030BD61400808ED40080870B5082862
:103B4000C0B004460D46164601D900202AE0002ADE
:103B5000FBD088B2FFF7EDFE0028F6D0FFF791FE0C
:103B6000E1238DF8003001238DF8023000238DF819
:103B700003508DF80530C5F30725D02320200721F9
:103B80006A468DF801408DF804508DF80630FFF735
:103B900055FE0028D9D0FFF774FEA02021463246FA
:103BA000FFF755FE40B070BD30B5014487B011F845
:103BB000103C432B054613D111F80F3C4F2B0FD16E
:103BC00011F80E3C4E2B0BD111F80D3C462B07D1B2
:103BD00011F80C3C492B03D111F80B3C472B04D0B6
:103BE0002A482B4A4FF4DF7149E001A8FFF774FF20
:103BF000044620B92548274A4FF4E2710BE008201B
:103C000000210DEB0002FFF799FF044630B91F4871
:103C1000214A4FF4E87120F049F933E09DF808306B
:103C2000492B2FD19DF80930542B2BD19DF80A3008
:103C3000372B27D19DF80B30322B23D19DF80C3038
:103C4000362B1FD19DF80D30302B1BD19DF80E3037
:103C5000462B17D19DF80F30572B13D10DF10600CD
:103C600005A9022265F0CCF8BDF806301D44BDF868
:103C700004309D4206DB0548084A4FF4EF7120F0FE
:103C800015F90024204607B030BD00BFB6C60708AE
:103C9000024108081E410808444108086741080815
:103CA0002DE9F04106460D46904604466CB1082CBD
:103CB00034BF27460827321B384629464244FFF7BF
:103CC0003DFF18B10835E41BF0E70120BDE8F081A5
:103CD00070B5002086B00C46FFF72BFE054628B9CC
:103CE0001E481F4A7A2120F0E1F834E0FFF7C9FDB1
:103CF0001020002102AAFFF7D3FF054608B90025CE
:103D000029E09DF811309DF81020217A9DF812606D
:103D100012481B0403EB02639DF813201344627ADC
:103D2000120402EB0162E17A0A44A17A02EB012259
:103D3000009203EB062392210A4A20F0B7F80023F1
:103D400002A9E2181944127A097A914203D1013387
:103D5000042BF5D1D3E7284606B070BD45400808CE
:103D600084410808AC41080830B50B78492B87B06E
:103D700005464ED14B78542B4BD18B78372B48D1FD
:103D8000CB78322B45D10B79362B42D14B79302B66
:103D90003FD18B79462B3CD1CB79572B39D101A818
:103DA000FFF79AFEA8B3BDF804101020103902AA3C
:103DB000FFF776FF044660B39DF80830432B2AD105
:103DC0009DF809304F2B26D19DF80A304E2B22D179
:103DD0009DF80B30462B1ED19DF80C30492B1AD183
:103DE0009DF80D30472B16D10DF106000DF10E0197
:103DF000022265F005F8BDF8063013FA85F5BDF826
:103E000004309D420DDB0848084A4FF4B77120F09A
:103E10004DF8002405E00448054A4FF4B97120F03C
:103E200045F8204607B030BDC5440808CC41080815
:103E3000F44108082DE9F04F8046C3B08A46934606
:103E400005463DB3802D34BF2E468026C5EB0807BE
:103E50000DF10809304607EB0A014A46FFF720FF3B
:103E6000C8B100240BEB070219F80400125D82426E
:103E700004EB070309D0009201904FF45D710748ED
:103E8000074A20F013F8002005E00134B442E9D3DA
:103E9000AD1BD6E7012043B0BDE8F08F51400808C4
:103EA0000E42080870B506460D46FFF75DFF044652
:103EB00020B91448144A40F229111FE00020FFF7EE
:103EC00038FD044620B90F48104A4FF4977115E0A9
:103ED00030462946FFF798FD044620B909480C4AA8
:103EE0004FF499710AE0304600212A46FFF7A2FFFD
:103EF000044628B90348074A40F237111FF0D6FF9D
:103F0000204670BDB24408084642080861420808CD
:103F100086420808AE420808F7B587B2054638461B
:103F20000E46FFF741FE044620B91D481D4A4FF4D6
:103F3000C5712FE00DF10600FFF7CEFD044620B954
:103F40001748194A40F28F1124E0BDF80600401BC3
:103F500080B2FFF7EEFC044620B91148134A40F244
:103F6000931117E028463146FFF74EFD044620B96D
:103F70000B480F4A4FF4CC710CE0BDF806102846F0
:103F8000C91B3246FFF756FF044628B90448094AC0
:103F900040F29D111FF08AFF204603B0F0BD00BF24
:103FA000D6460808D1420808EA4208080B43080828
:103FB0002E4308085443080873B52F494FF4F340C3
:103FC000FFF786FE2D4906464FF40070FFF730FDDF
:103FD0002B4B1B7805460BB101252E460095294831
:103FE000294AEF2133461FF061FF0EB9002D38D06A
:103FF000FFF759FC044618B92248244AF3212DE062
:1040000056B14FF4F3401C49FFF74CFF044618B972
:104010001C481F4AF92121E05DB14FF40070174997
:10402000FFF77AFF044620B916481A4A40F20111F8
:1040300014E0FFF75BFC044620B91248164A4FF41F
:1040400083710BE0FFF795FC04460E481CB940F263
:104050000B11124A02E0124A4FF487711FF026FF3B
:1040600006E008480F4A4FF488711FF01FFF2C46E6
:10407000204602B070BD00BFC5C60708D644080878
:10408000D86704107D40080875430808994308085C
:10409000C7430808EB4308080D4408083A440808D9
:1040A00062440808894408083E4B40F23F122DE95B
:1040B000F341DA605A61DA615A62082200211A6417
:1040C0000A2299601961996119625A64364BDFF8C6
:1040D00018811C78354FFF2C06D098F80060FF2E11
:1040E00002D03D78FF2D15D13148324A45211FF0CD
:1040F000DDFE98F8003000933B7801932C482E4A5F
:10410000472123461FF0D2FE2C482D4A2D4B482133
:1041100064F004FE2C4ADFF8D48013782B4FB3B937
:1041200053782BB9D3700421137101239170537606
:10413000137A254953B998F8000008730B7438783E
:104140004B6101234E728D72C8720B7214764FF45C
:10415000A073009316481E4A65211FF0A7FE234650
:1041600013481C4A66211FF0A1FE334610481A4A24
:1041700067211FF09BFE2B460D48184A68211FF04F
:1041800095FE98F800300A48154A69211FF08EFE06
:104190000748144A3B786A2102B0BDE8F0411FF09D
:1041A00085BE00BF68920410F50A0A08F80A0A08DA
:1041B000A6480808084708082B4708086C4708085D
:1041C000E7460808EE4C08084C920410F70A0A0863
:1041D000BF470808FC4708081E4808084048080868
:1041E0006248080884480808F20A0A08F60A0A0819
:1041F0002A4BF7B5EF22DA605A61DA615A62082277
:1042000000211A640A2299601961996119625A643D
:10421000234B244E1C78244DFF2C05D03778FF2FDC
:1042200002D02878FF2814D12048214A44211FF0C9
:104230003DFE337800932B7801931C481D4A46219C
:1042400023461FF033FE1C481C4A1D4B472164F0D7
:1042500065FD1C4A1378C3B953782BB9D370042178
:104260001371022391705376137A164963B98872D9
:1042700015484B610078087314484F720078C87273
:104280000123032008740B7214760848104A632136
:1042900003B0BDE8F0401FF009BE00BF68920410F3
:1042A000F50A0A08F20A0A08F80A0A086C49080816
:1042B000084708082B470808EB480808C7480808BB
:1042C000EE4C08084C920410F60A0A08F70A0A088D
:1042D0004149080810B5044664F0EFFE204664F03A
:1042E000F4FE042803DC202222540130F9E70022E6
:1042F0002254204410BD0000074B1B68D86A48B9FF
:10430000064B1B68012B06D8054B1868054B1B682C
:10431000C01A704700207047389504108493041029
:10432000B83B0410809304102DE9F0410C68002C78
:104330003CD04C6864684C6001F10806B44204BF8C
:1043400074684C604C68E768034600204C686468F9
:104350004C60B44204BFCC684C604C68E4681C609C
:1043600004F134055D60E56B9D601A73E56A1D61BB
:10437000032A03D1A56A0DB102251D73656C5D6129
:10438000E56C9D61D4F83080002518F805C0BCF1BB
:10439000A50F01D10135F8E7AD08BC429D8300F1BE
:1043A000010003F12003D1D1BDE8F0812046BDE832
:1043B000F0810000064A13681968064B11B94FF0E6
:1043C000FF3203E01268D268D26852681A60704700
:1043D0002C950410B83B041010B5044628B90A48BF
:1043E0000A4940F2625226F0BBFC6369084A9342D4
:1043F00008D1A06A074B984204D0D0F1010038BF21
:10440000002010BD002010BD944908089A490808F2
:10441000409504106493041010B50E4B1A68506058
:104420000D4A12689042044607D20C4A1068196877
:10443000BDE81040043101F081B8094A10681968DC
:10444000043101F07BF8074B1A68944238BF1C60B6
:1044500010BD00BF38950410809304108C95041093
:104460002C950410B83B04102DE9F84F0A9E0C9DC2
:104470008A4693469946804628B96348634940F284
:10448000292226F06DFC132E05D961485F4940F2C0
:104490002A2226F065FC3DB94FEA8B0001F0F0FFBF
:1044A0000546002800F0AB80582001F0E9FF0446E3
:1044B00078B14FEA8B0B05635A462846A52164F074
:1044C000C3FC236BABF1040B5B4423F0070700250F
:1044D00006E0284602F070F891E00135062D08D07C
:1044E00062191AF8051082F834101AF80520002A0B
:1044F000F3D10025132E34BFB3464FF0130B04F154
:10450000040A504684F83950C4F82CB0C4F844B0BA
:10451000A56401F004F804F1180001F000F8CBF1F3
:104520001402A261256524616462E56484F8545034
:10453000384641464A4601F0A5FE0B9B206003B178
:104540001C6001F0BDFE334B334D1A68DFF8F48078
:1045500001321A602F681FBB2C601B68012B27D10A
:1045600008EB0700143700F0CFFFB7F5C87FF7D18D
:10457000DFF8D490294F484600F0C6FF384600F0D7
:10458000C3FF274800F0C0FF264800F0BDFF2648C3
:1045900000F0BAFF254BC3F80090254B1F6007E0E1
:1045A000244B1B6823B92B68DB6AB34298BF2C608D
:1045B000214A136801331360204AE363E36A1168F8
:1045C000012404FA03F001431420116000FB03806E
:1045D000514600F0A7FF01F095FE164B1B685BB13A
:1045E0002B68DB6AB34207D2154B4FF080521A603A
:1045F000BFF34F8FBFF36F8F2046BDE8F88F4FF0AA
:10460000FF30BDE8F88F00BFCD4908089A49080877
:10461000D849080854950410389504106C95041076
:104620006493041018950410409504102C95041000
:104630008C95041030950410809504107893041024
:1046400004ED00E0849304105895041038B5044636
:1046500001F036FE0CB9254B1C68251D284600F0DC
:1046600085FF68B9E26A224914235343CB583BB90A
:10467000204B0120196800FA02F221EA02021A60B6
:10468000A36A1BB104F1180000F070FF1A48294614
:1046900000F048FF194B1A6801321A60184B1A686B
:1046A00001321A6001F02EFE164B1B68EBB10F4B66
:1046B0001B689C4211D1144B1B682BB11348144941
:1046C00040F21A3226F04CFB124B4FF080521A6027
:1046D000BFF34F8FBFF36F8F38BD01F0F1FDFFF7D0
:1046E00069FEBDE8384001F00DBE38BD38950410B4
:1046F0008493041078930410189504107C9304108C
:104700008095041030950410889504101B4A080801
:104710009A49080804ED00E013292DE9F041044608
:104720000D4606D92E482F4940F2624226F018FB6A
:10473000132501F0C5FD0CB92B4B1C68636CAB4213
:1047400049D09D42284A09D911688C420BD0126881
:10475000D66AB54234BF0026012605E01668A21BC2
:104760005642564100E00026E76A20486564BB4295
:10477000A36908BFE5621422002B6369A8BFC5F1D5
:10478000140502FB0702A8BFA5619342804619D118
:10479000251D284600F0EAFE38B9154B01211A689C
:1047A00001FA07F722EA07071F60114AE36A106857
:1047B0000121994001431420116000FB0380294628
:1047C00000F0B0FE3EB10B4B4FF080521A60BFF3C9
:1047D0004F8FBFF36F8FBDE8F04101F093BD00BF75
:1047E000354A08089A49080838950410849304103B
:1047F0007893041004ED00E0F8B5044638B91B487E
:104800001B4940F28C52BDE8F84026F0A9BA194D78
:104810002B68984229D001F053FD2046FFF7DCFDBC
:10482000012807461DD1261D304600F09FFE124A82
:10483000E36A11689F400F431760104A142000FB81
:104840000320314600F06EFE2B68E26ADB6A9A4272
:1048500007D30B4B4FF080521A60BFF34F8FBFF35B
:104860006F8FBDE8F84001F04DBDF8BD5E4A080805
:104870009A4908083895041078930410849304101A
:1048800004ED00E01FB50024009401940294039409
:10489000154816494FF480722346FFF7E5FD0128BD
:1048A00016D101F0E1FA012812D14FF0100383F381
:1048B0001188BFF36F8FBFF34F8F0D4B18600D4BF7
:1048C0001C6026F0EFFD04B0BDE8104001F032BDE1
:1048D00040B90948094940F24C6204B0BDE81040B3
:1048E00026F03EBA04B010BDF14B01086C4A08082E
:1048F0003095041080930410714A08089A490808FA
:10490000024B1A6801321A60704700BF8895041084
:10491000014B1868704700BF8093041008B501F080
:1049200059FD014B186808BD80930410014B1868AD
:10493000704700BF5495041038B5094C094B2268E4
:104940001B6802449A42054605D90748074940F2C8
:10495000867226F005FA23681D44256038BD00BF25
:1049600080930410B83B04107F4A08089A4908084D
:104970002DE9F047374B1B68002B3DD1364B1A68A9
:1049800001321A601E68A6B9344C23681B682BB12B
:104990003348344940F2A57226F0E2F9324B2268DE
:1049A000196821601A60314B1A6801321A60FFF7EA
:1049B00001FD2F4FDFF8C8803B68DFF8C8909E42AA
:1049C0004FF000040DD3254B1A68126812B94FF04E
:1049D000FF3305E01B68DB68DD686B689E4211D21F
:1049E0003B60D9F80030DB6A1422534358F8033097
:1049F000022B28BF012425E01E4B1A6801321A60E1
:104A000000241FE005F1040A504600F0AFFDAB6A38
:104A10001BB105F1180000F0A9FD174AEB6A1068F8
:104A20000121994001431420116000FB038051468D
:104A300000F078FDD9F80030EA6ADB6A9A4228BFB4
:104A40000124C0E70D4B1B68002B18BF0124204632
:104A5000BDE8F08788950410809304102C9504100D
:104A6000B54A08089A4908088C95041090950410D6
:104A7000B83B04103C9504107893041084950410FE
:104A8000849304103895041070B52E4C23682BB90C
:104A90002D482E4940F2896226F062F901F010FC9F
:104AA0002368013B236023680BB1002445E0284BB9
:104AB0001B68002BF9D0274B1A680AB3DB68DC6847
:104AC000261D04F1180000F051FD304600F04EFDA7
:104AD000214AE36A1168012505FA03F001431160D8
:104AE0001E4A142000FB0320314600F01BFD1C4B26
:104AF000E26A1B68DB6A9A4224BF1A4B1D60DAE740
:104B0000194C2368ABB9174B1C68012CCDD1174B3E
:104B10004FF080521A60BFF34F8FBFF36F8F0CE0DE
:104B2000FFF726FF10B10F4B01221A602368013BEB
:104B300023602368002BF3D1E5E701F0E3FB204677
:104B400070BD00BF88950410E04A08089A4908081B
:104B50005495041064930410789304108493041003
:104B600038950410849504103C95041004ED00E081
:104B700038B5044640B9174B4FF080521A60BFF366
:104B80004F8FBFF36F8F38BD134B1B682BB113488A
:104B9000134940F29F3226F0E3F8FFF7B1FE114DC2
:104BA000114B1B68286804301C4400F0DFFC48B936
:104BB0000E4B19682A68D26A012000FA02F221EA33
:104BC00002021A602046FFF727FCFFF75DFF00286E
:104BD000D1D038BD04ED00E0889504101B4A0808C8
:104BE0009A490808389504108093041078930410AB
:104BF00070B5244D2B68F3B1234CFFF781FE266876
:104C0000FFF742FF002EF4D001F05AFBE368DC68A6
:104C1000201D00F0ABFC1D4B1A68013A1A602B688E
:104C2000013B2B6001F06EFB206B01F0C5FC2046C0
:104C300001F0C2FCDDE7164B1B68012B07D9154BB1
:104C40004FF080521A60BFF34F8FBFF36F8FFFF7A3
:104C500053FB0128CDD9FFF753FE0F4B1A680F4BBA
:104C60001B689A4205D20E480E4940F6AA2226F049
:104C700077F8FFF741FB012801D901F07DFDFFF72F
:104C800003FFB6E77C9304101895041054950410A4
:104C90008493041004ED00E0B83B041080930410EA
:104CA000204B08089A4908082DE9F0410D460446B2
:104CB0001746FFF725FE1D4B1B689D4230D31C4E47
:104CC0000025A6F5C87804EB451031460122FFF710
:104CD0002BFB143E46450544F5D1164B04EB45101D
:104CE00019680222FFF720FB134B0544196804EBF7
:104CF00045100222FFF718FB054404EB45100F494D
:104D00000422FFF711FB054404EB45100C49032274
:104D1000FFF70AFB054427B126F0CAFB386000E024
:104D20000025FFF7B1FE2846BDE8F0815495041038
:104D3000009504102C9504108C95041018950410FF
:104D40004095041070B52E4B1A682E4B12B10122FB
:104D50001A6070BD1A6026F0ABFB2B4B2B4C186011
:104D60002B4B1A6890421D4604D92368D96C8A1AC5
:104D70000244DA64274B28601A6812F0010F1D46BE
:104D80000BD0216822680968126B204B914204D82D
:104D900018681968343126F099FB2B68DB070CD5AD
:104DA00023681D49186B194D142264F01AF820B1BC
:104DB00028682968343126F089FB184B1D68B5FA3C
:104DC00085F5EDB2C5F11F051422154B6A431E4649
:104DD0009A582AB91348144940F6C40225F0C0FF76
:104DE000142303FB056303F108015A6852685A60F3
:104DF0008A4204BF52685A605B68DB68236070BDFA
:104E000088950410849504101495041038950410A6
:104E100034950410F0ED00E07F4C080878930410FE
:104E200084930410434B08089A490808F8B50446CF
:104E3000294D01F045FA04B92C68261D304600F0D2
:104E400095FB68B9E26A254914235343CB583BB913
:104E5000234B0120196800FA02F221EA02021A60CB
:104E6000A36A1BB104F1180000F080FB1D4F31460E
:104E7000384600F057FB01F045FA2B689C421A4B6C
:104E80001B681ED18BB1194B1B682BB118481949EF
:104E900040F22A5225F064FF174B4FF080521A60FF
:104EA000BFF34F8FBFF36F8FF8BD144A3968126894
:104EB000914202D1084A1360F8BDBDE8F840FFF7FF
:104EC00041BF3BB101F0FCF9FFF774FABDE8F840CF
:104ED00001F018BAF8BD00BF38950410849304108F
:104EE00078930410409504103095041088950410B0
:104EF0001B4A08089A49080804ED00E0549504107C
:104F000070B50D46064628B91548164940F6D60232
:104F100025F026FF144C21683046183100F00EFBB6
:104F20002068043000F022FB48B9104B1968226851
:104F3000D26A012000FA02F221EA02021A606B1C16
:104F400006D121680A480431BDE8704000F0EABA91
:104F5000084B18682844BDE87040FFF75DBA00BFF1
:104F60008A4B08089A490808389504107893041069
:104F7000409504108093041070B50E46054628B97C
:104F80001048114940F6551225F0EAFE0F4C2168F1
:104F90002846183100F0C6FA2068043000F0E6FA1E
:104FA00048B90B4B19682268D26A012000FA02F254
:104FB00021EA02021A60074B18683044BDE87040CD
:104FC000FFF72ABA8A4B08089A490808389504104E
:104FD000789304108093041038B5C368DC682CB94A
:104FE0001748184940F68F1225F0BAFE04F118054B
:104FF000284600F0BBFA144B1B687BB9251D2846D8
:1050000000F0B4FA114AE36A1068012199400143A3
:1050100011600F4A142000FB032000E00D482946D0
:1050200000F080FA0C4BE26A1B68DB6A9A4285BF8B
:105030000A4B012400241C60FFF7BCF9204638BD50
:10504000B04B08089A490808889504107893041012
:10505000849304106493041038950410849504100C
:1050600070B51B4B1B6805460C462BB919481A49ED
:1050700040F6C71225F074FE44F000442C60EC6842
:105080002CB91648144940F6CF1225F069FE261DAA
:10509000284600F06BFA304600F068FA104AE36ADE
:1050A0001168012505FA03F0014311600D4A14202F
:1050B00000FB0320314600F035FA0B4BE26A1B6817
:1050C000DB6A9A4283BF094B1D602846002070BDF1
:1050D00088950410BF4B08089A490808B04B080887
:1050E0007893041084930410389504108495041068
:1050F00010B5044628B90648064940F6EF1225F0D7
:105100002FFE054B1B682360044B1B68636010BDBA
:10511000DF4B08089A490808909504108093041002
:1051200038B50D46044628B91548164940F6F91217
:1051300025F016FE2DB91448124940F6FA1225F052
:105140000FFE01F0BDF8114B1A682B68591C10D0E6
:105150000F49086821688842616801D08A420AD2F2
:10516000501A984207D28A1A13442B602046FFF740
:10517000BFFF002400E0012401F0C4F8204638BD40
:10518000DF4B08089A490808E94B08088093041087
:1051900090950410014B01221A6070478495041009
:1051A000054B1B6833B9054B1868D0F1010038BFB7
:1051B0000020704700207047649304108495041009
:1051C00008B9064B1868026B0020135CA52B01D1AF
:1051D0000130FAE7C0F38F00704700BF3895041024
:1051E000014B1868704700BF38950410054B1B68C9
:1051F00033B1054B1B68002B14BF00200220704701
:105200000120704730950410889504102DE9F04175
:10521000044600283BD01F4DC36A2A68D26A9342D5
:1052200035D28269002A04DB2A68D26AC2F11402EC
:105230008261194F62694FF0140808FB03739A42A8
:1052400022D1261D304600F091F9144B60B9E26A74
:1052500008FB02F857F8081031B91968012000FA64
:1052600002F221EA02021A602A681868D26AE2622F
:105270000121914001431960142000FB0270314666
:10528000BDE8F04100F04EB92B68DB6AE362BDE88F
:10529000F08100BF389504108493041078930410B3
:1052A00070B5044608B9002070BD836C2BB91A484C
:1052B0001A4940F6515225F053FDA36CE16A626C25
:1052C000013B9142A364EED0002BECD1251D284672
:1052D00000F04CF91249134B58B9E26A14205043BC
:1052E000085830B91868012606FA02F220EA0202CC
:1052F0001A60626CE262C2F11400A06118680124B5
:1053000004FA02F630431860142000FB021029460C
:1053100000F008F9204670BDF74B08089A490808C4
:105320008493041078930410F0B5254B85B01A6867
:1053300002920026067005461868400101F0A0F8A8
:10534000044600283AD002993246FFF7ADFC02909D
:105350000396039A029B9A422DD2039B04EB4313BC
:1053600028461B7B013BDBB2032B9CBF154AD65C56
:10537000039B04EB431388BF00265968FEF7AAFF7E
:10538000039F039A039B104904EB421204EB43135F
:10539000928B00929B68019304EB471705463B698B
:1053A000324663F0DDFD284663F08FFE039B013338
:1053B00005440393CDE7204601F0FEF805B0F0BDAB
:1053C00054950410904908080C4C08087FB5244BEC
:1053D0001A6801920026067005461868400101F01F
:1053E0004FF80446002838D003AA0199FFF75CFC67
:1053F000039B01906422B3FBF2F303931BB9204695
:1054000001F0DAF829E00296029A019B9A42F6D25C
:10541000029B04EB431328469E69039BB6FBF3F6FD
:10542000029B04EB43135968FEF754FF029B0546A9
:1054300004EB43132EB19A690A49334663F090FD99
:1054400003E009499A6963F08BFD284663F03DFE4D
:10545000029B013305440293D6E704B070BD00BF40
:10546000549504101B4C0808274C0808044B1A6874
:105470001AB11A68916C013191641868704700BFC5
:105480003895041030B5184B85B01A680192186829
:10549000400100F0F5FF044618B3019903AAFFF795
:1054A00003FC002301900293029A019B9A4215D2B9
:1054B000029B5B01E35813B90C4B1D6802E0029B91
:1054C0005B01E5582DB90A480A4941F2F50225F079
:1054D00047FC0023EB64029B0133E4E7204601F024
:1054E0006BF805B030BD00BF54950410389504101A
:1054F000794A08089A49080808B9024B1868006BED
:10550000704700BF3895041000F1080343604FF066
:10551000FF32C36003610023826003607047002391
:105520000361704743684B609A688A609A6851606B
:1055300099600861036801330360704730B50C68F7
:10554000631C01D1036907E000F108035A6815687C
:10555000A54201D81346F9E75A684A6091608B600A
:105560005960086103680133036030BD4268816897
:10557000036991608268416851605A68824204BF41
:1055800082685A600022026118680138186070470A
:1055900038B51546026C044632B9056845BB40680B
:1055A000FFF77EFE656024E06DB9806863F028FC3B
:1055B000A268236C13446268A360934218D32368E3
:1055C000A360284615E0C06863F01AFC236CE2680B
:1055D00021685B421A448A42E26002D26268134444
:1055E000E360022D04D1A36B13B1A36B013BA36352
:1055F0000020A36B0133A36338BD30B5026C0346B2
:105600006AB1C46845681444AC42C46024BF0468ED
:10561000C460BDE830400846D96863F0F1BB30BDD6
:1056200010B5044600F04CFEA36C002B0CDD636A41
:1056300053B104F12400FFF7CFFC08B1FFF7AAFD36
:10564000A36C013BA364EFE74FF0FF33A36400F0CA
:1056500059FE00F035FE636C002B0CDD236953B15D
:1056600004F11000FFF7B8FC08B1FFF793FD636C7D
:10567000013B6364EFE74FF0FF336364BDE8104024
:1056800000F040BE38B50D46044628B91A481B49FB
:105690004FF4847225F064FB00F012FE226CE06B84
:1056A0002368A3605043821A191813446160E360B1
:1056B00000214FF0FF33A1636364A36485B92369BC
:1056C000B3B104F11000FFF787FC012810D10C4B97
:1056D0004FF080521A60BFF34F8FBFF36F8F07E018
:1056E00004F11000FFF710FF04F12400FFF70CFF96
:1056F00000F008FE012038BD934C08089B4C0808B8
:1057000004ED00E0F8B50D461746064628B91448E2
:1057100014494FF4A27225F023FB1DB105FB06F0DE
:10572000013000E02846543000F0AAFE044670B173
:105730000DB9206002E000F154030360E6632564C4
:1057400020460121FFF79EFF84F8507005E00648CF
:1057500004494FF4C17225F003FB2046F8BD00BF99
:10576000CE4C08089B4C0808714A080838B50D460D
:10577000044628B90F48104940F24E2225F0F0FAAD
:10578000A54205D90D480C4940F24F2225F0E8FA10
:10579000204600210222FFF7B5FF044608B18563C9
:1057A00005E00748044940F25E2225F0D9FA204678
:1057B00038BD00BFF04C08089B4C0808004D080895
:1057C0001D4D08082DE9FF410E4601921D46044675
:1057D00028B95148514940F26B2225F0C1FA16B957
:1057E000236C002B7FD1022D03D1E36B012B40F002
:1057F0008180FFF7FBFC18B9019B002B40F08180F2
:10580000002700F05DFDA26BE36B9A4201D3022DED
:105810001AD1204631462A46FFF7BAFE636A33B1F1
:1058200004F12400FFF7D8FB012809D100E038B1CA
:105830003B4B4FF080521A60BFF34F8FBFF36F8F17
:1058400000F060FD012063E0DDF80480B8F1000F96
:1058500002D100F057FD44E017B902A8FFF748FC59
:1058600000F050FDFFF74CF800F02AFD636C0133A7
:1058700004BF00236364A36C013304BF0023A3644B
:1058800000F040FD02A801A9FFF74AFC20BB00F090
:1058900017FDD4F83880E76B00F034FDB84515D11A
:1058A00004F110000199FFF72BFB2046FFF7B8FE2B
:1058B000FFF7EAF808B10127A3E7194B4FF0805230
:1058C0001A60BFF34F8FBFF36F8FF4E72046FFF7E7
:1058D000A7FEFFF7D9F8EEE72046FFF7A1FEFFF796
:1058E000D3F8002014E00F480C494FF41B7225F048
:1058F00037FA78E70C48094940F26D2225F030FA72
:1059000077E70A4805494FF41C7225F029FA77E732
:1059100004B0BDE8F08100BF934C08089B4C080818
:1059200004ED00E0254D0808754D0808BC4D080839
:1059300070B50646542000F0A3FD0446E0B10123F3
:105940000025C3634FF0FF33856345604364056002
:1059500083648560C560056480F850601030FFF78F
:10596000D3FD04F12400FFF7CFFD204629462A4647
:105970002B46FFF727FF05E0034804494FF4E17287
:1059800025F0EEF9204670BD124E08089B4C080821
:1059900038B5044628B90C480C494FF4F77225F085
:1059A000DFF96568FFF71CFC854209D1E168013920
:1059B000E16039B920460A460B46FFF703FF01E0D4
:1059C000002038BD012038BD1D4E08089B4C08083A
:1059D0002DE9F0410E4617461D46044628B92648D3
:1059E00026494FF4856225F0BBF916B9236C002BCC
:1059F00033D1022D02D1E36B012B35D100F0EAFC4B
:105A0000EFF311884FF0100383F31188BFF36F8F0A
:105A1000BFF34F8FA26BE36B9A4201D3022D17D1D4
:105A2000204631462A46FFF7B3FDA36C01330AD165
:105A3000636A5BB104F12400FFF7CEFA30B12FB1F5
:105A40000120386005E0A36C0133A364012000E06D
:105A5000002088F31188BDE8F0810948074940F229
:105A6000294225F07DF9C4E70648044940F22A425C
:105A700025F076F9C2E700BF934C08089B4C080854
:105A8000254D0808754D080870B50D46044628B91F
:105A90001B481C4940F2BD4225F062F9236C2BB132
:105AA000194818494FF4986225F05AF900F092FC11
:105AB000EFF311864FF0100383F31188BFF36F8F5C
:105AC000BFF34F8FA26BE36B9A4215D2A36B0133E6
:105AD000A363A36C01330AD1636A5BB104F12400B0
